:020000020000FC
:0400000012C0B2C4B4
:0200160018C50B
:1000260004E00EBF0FE50DBF0FEFE02EFF24E7BA89
:10003600E8BAE4BAE5BAF1BAE2BAE0BA899A8B9AB2
:1000460002E005BF00E40BBF7894FAB807E109B9EE
:1000560008E90AB9F0926000F0926100F09262003D
:10006600F0926300F0926400E0926700E09268000C
:10007600E0926900E0926A00E0926B00E0926C0008
:10008600E0926D00E0926E00E0926F0036D4939895
:10009600FAD303D4FAE0EAEFE89417D449D4FBE0A4
:1000A600E4E2E89412D444D4FBE0E8E7E8940DD403
:1000B60071D492C3FBE0E2EAE89407D4B0D34427B4
:1000C60073D48AC305E50ED5503079F0513071F0FE
:1000D600523069F0533061F0543059F0553051F0D8
:1000E600563049F0573041F089C307C01CC02AC0BA
:1000F6003AC04AC05AC06AC07AC0442351F441E0AB
:1001060000E093D300E2ADD304E18FD30EE7A9D389
:1001160075C340E000E089D30EE7A3D304E185D39D
:1001260000E29FD36BC34A95403009F44EE2D0E01B
:10013600C1E900D72196FD2FEC2F32E0BCD304E2B3
:1001460074D35CC34A954F3F09F448E002E0049F2C
:10015600020C131C000C111CF12DE02D34E0A6D36B
:1001660001E063D34BC34A954F3F09F44EE101E0EA
:10017600049F020C131C000C111CF12DE02D32E023
:1001860095D30AE052D33AC34A954F3F09F44BE060
:1001960002E0049F020C131C000C111CF12DE02D33
:1001A60033E084D30DE041D329C34A954F3F09F488
:1001B60041E001E0049F020C131C000C111CF12D00
:1001C600E02D32E073D301E130D318C34A954F3F97
:1001D60009F443E001E0049F020C131C000C111CFF
:1001E600F12DE02D31E062D306E21FD307C34A9515
:1001F6004F3F21F445E462E078E005C0639568303E
:1002060011F460E07A95142F06E0302E01EA202ED4
:1002160002E0019F020C131C000C111CF12DE02DB5
:1002260002E203D333E042D3F0E0E7E6E70FFF1D37
:1002360010814BD6012339F006E2F7D200E511D33F
:1002460006E2F3D207C006E2F0D201E40AD306E2E0
:10025600ECD200C0D3C204E445D4503079F051301A
:1002660071F0523069F0533061F0543059F0553026
:1002760051F0563049F0573041F0C0C207C01CC09B
:100286002AC03AC04AC05AC06AC07AC0442351F450
:1002960041E000E0CAD200E2E4D204E1C6D20EE7B1
:1002A600E0D2ACC240E000E0C0D20EE7DAD204E110
:1002B600BCD200E2D6D2A2C243954F3209F441E045
:1002C600D0E0C1E937D62196FD2FEC2F32E0F3D2EC
:1002D60004E2ABD293C24395493009F440E002E010
:1002E600049F020C131C000C111CF12DE02D34E0B0
:1002F600DDD201E09AD282C243954F3109F440E043
:1003060001E0049F020C131C000C111CF12DE02DC2
:1003160032E0CCD20AE089D271C243954C3009F45E
:1003260040E002E0049F020C131C000C111CF12D8E
:10033600E02D33E0BBD20DE078D260C24395423067
:1003460009F440E001E0049F020C131C000C111C90
:10035600F12DE02D32E0AAD201E167D24FC24395DA
:10036600443009F440E001E0049F020C131C000C29
:10037600111CF12DE02D31E099D206E256D23EC293
:100386004395463421F440E067E070E005C06A9585
:100396006F3F11F467E07395142F06E0302E01EAE3
:1003A600202E02E0019F020C131C000C111CF12DE3
:1003B600E02D02E23AD233E079D2F0E0E7E6E70F49
:1003C600FF1D108182D5012339F006E22ED200E509
:1003D60048D206E22AD207C006E227D201E441D279
:1003E60006E223D200C00AC205E47CD35030A1F055
:1003F600513079F0523001F1533011F1543021F17E
:10040600553031F1563041F1573021F0583019F05E
:10041600F8C1D3C025C02FC0442331F4FBE0ECEC77
:10042600E89453D2BBD2EDC1FBE0E2EAE8944DD2A8
:10043600F6D14427B9D2E5C14093600006D1E1C1A7
:100446004093610002D1DDC140936200FED0D9C164
:1004560040936300FAD0D5C140936400F6D0D1C171
:10046600FCE0E0E2E89431D206E2DFD14F936F93ED
:100476007F93DED2C6C1442361F5E7D07F916F91A9
:100486004F91142F06E0302E01EA202E02E0019F44
:10049600020C131C000C111CF12DE02D02E2C5D13B
:1004A60033E004D2F0E0E7E6E70FFF1D10810DD53B
:1004B600012339F006E2B9D100E5D3D106E2B5D180
:1004C60007C006E2B2D101E4CCD106E2AED100C04B
:1004D60098C1A8D1FCE0EAE4E894F7D104E139D266
:1004E6000EE2BFD104E135D20EE2BBD104E131D236
:1004F6000EE2B7D102E32DD2FCE0ECE834E0D6D12F
:1005060002E327D20091600064E0E8D4102F009146
:100516006200102B109365000091610063E0DED449
:10052600102F0091630062E0D9D4102B0091640073
:10053600102B10936600F1E0EFEFDBD40F931BE076
:10054600109FD12DC02DF0E0E5E63BE0E3D40F91FE
:100556000F930395D1E0CFEFD3D40F910F931BE008
:10056600109FF12DE02DD0E0C0E73BE0DBD4F0E0BA
:10057600E0E7D0E0CBE73BE0332329F04191FDD41F
:1005860022963A95F9CF44D1F0E0EBE734E093D1E7
:100596004F914395D0E0C1E9CDD4219602E145D1F2
:1005A600FD2FEC2F32E087D104E13FD1F0E0EFE7F9
:1005B60032E181D1859B34CDFDCF34D1FCE0ECE630
:1005C600E89483D104E1C5D10EE24BD104E1C1D157
:1005D6000EE247D104E1BDD10EE243D102E3B9D127
:1005E600FCE0ECE834E062D102E3B3D14F934A95E4
:1005F6001BE0149FF12DE02DD0E0C0E73BE092D444
:10060600F0E0E0E7D0E0CBE73BE0332329F041918F
:10061600B4D422963A95F9CFFBD0F0E0EBE734E07C
:100626004AD14F91D0E0C1E985D4219602E1FDD0AF
:10063600FD2FEC2F32E03FD104E1F7D0F0E0EFE7F9
:1006460032E139D1859BECCCFDCFE2D01091600030
:1006560006E0302E02E5202E02E0019F020C131C5C
:10066600000C111CF12DE02D00E0DFD034E01ED18E
:100676001091610006E0302E04E6202E01E0019F75
:10068600020C131C000C111CF12DE02D0BE0CDD03B
:1006960032E00CD10DE2E5D01091620006E0302E7A
:1006A60003E8202E02E0019F020C131C000C111C13
:1006B600F12DE02D0EE0B9D033E0F8D00DE2D1D027
:1006C6001091630006E0302E0BE9202E01E0019F19
:1006D600020C131C000C111CF12DE02D02E1A5D01B
:1006E60032E0E4D0FCE0EAE004E19FD039E0DED07D
:1006F6001091640006E0302E0DE9202E01E0019FE6
:10070600020C131C000C111CF12DE02D0DE18DD0F7
:1007160031E0CCD0FCE0E4E10EE187D03AE0C6D08F
:1007260010E006E0302E01EA202E02E0019F020CC6
:10073600131C000C111CF12DE02D02E276D033E0E3
:10074600B5D006E272D06DD1089503E4CBD1513015
:1007560079F0523079F0533079F0543079F05530E1
:1007660079F0563079F0573079F0583059F146C063
:100776009BDC44C026D142C030D140C03AD13EC0F5
:1007860044D13CC011D13AC0F0E0E7E6E70FFF1DC7
:1007960010819BD3012351F000951023108306E2AC
:1007A60044D001E45ED006E240D00AC08ED3102BBE
:1007B600108306E23AD000E554D006E236D000C0F7
:1007C600DFDD1CC0442321F040E006E22ED016C037
:1007D60041E004E22AD012C000B30095007FE1F3A5
:1007E6000EE1B3D000B30095007FB1F3869B33CD05
:1007F600879B68CC849BA9CF859BF6CD08ECA5D0BA
:10080600EBCF00B30095007FE1F70AE09ED0E4CF7E
:1008160001E016D0089508E113D02A9508950EE058
:100826000FD008950CE00CD0089504310AF0045D51
:10083600202F006805D00895202F006801D0089564
:10084600C0980F930F60029505BBC19AC1980F918E
:1008560002950F60029505BBC19AC19802E075D05A
:100866000895C09A0F930F60029505BBC19AC1986F
:100876000F9102950F60029505BBC19AC198239509
:1008860002E063D008954FD000E3DADF06E0D8DF58
:1008960008E0D6DF04E659D0089508E2D1DF06E085
:1008A600CFDF0CE0CDDF01E0CBDF08950591D9DF86
:1008B6003A9511F1FBCF0191D4DF3A95E9F0FBCFE0
:1008C60005910030C9F0CDDFFBCFA2DF20E016F0A6
:1008D600059101C00191102F003071F0243121F4EF
:1008E60020E400ECADDF05C0243519F420E000E873
:1008F600A7DF012FB6DFEBCF0895939A02E325D049
:10090600939802E322D00895B0E0A9E01197F1F799
:100916000895B0E0ACE51197F1F70895B3E0A9E9C1
:100926001197F1F70895B4E2A0E01197F1F7089551
:1009360014E6F9DF1A95E9F70895E6DF0A95E9F76F
:100946000895E7DF0A95E9F70895E8DF0A95E9F7DC
:100956000895E9DF0A95E9F70895EADF0A95E9F7C8
:1009660008951F930F930FB70F930EE1EEDF829951
:1009760008C0939B939901C002C0939802C0939AB2
:1009860000C0829BFECF0AE0E0DF0F910FBF0F9100
:100996001F91189550E040E045DF089551E041E091
:1009A60004E243DF3CDF089552E040936400409147
:1009B600600006E0302E02E5202E01E036DF2FDF54
:1009C600089553E0409360004091610006E0302EA8
:1009D60004E6202E0AE029DF089554E040936100E2
:1009E6004091620006E0302E03E8202E0DE01DDF68
:1009F600089555E0409362004091630006E0302E72
:100A06000BE9202E01E111DF089556E040936300C3
:100A16004091640006E0302E0DE9202E06E205DF47
:100A2600089557E040E067E0772706E2FEDE089586
:100A360058E0442706E2F9DE08956E6564303330E7
:100A4600340057987894FAE0E0E40EEE02BF05E031
:100A560003BF02B7002321F05F9BFBCF0CB101C09F
:100A660001E0F3BE1591011751F4112309F0EDCF02
:100A760001E438D0FEE0E6EAE89427DF08C002E5A4
:100A860031D0FEE0E6EAE89420DF52DFC9CA2ED074
:100A9600033519F00534A9F021C04ADF01E422D05C
:100AA600F1E0EFEF26D21ED01BE0109FF0E0E0E071
:100AB60020D218D03196F115D9F7E015C9F738DFED
:100AC600AFCA36DF01E40ED0F1E0EFEF12D20AD062
:100AD600D1E0CFEF00E014D22BDFA2CA02E502D0AC
:100AE60027DF9ECA5D9BFECF0CB908955F9BFECFA4
:100AF6000CB10895204469676974616C204174746F
:100B0600656E64616E636520205265636F7264650D
:100B16007220202028442E412E52292000002069D0
:100B260064656120616E64206566666F7274206F0D
:100B36006620424520456C656374726F6E69637307
:100B46002020204E45440000206964656120616EC6
:100B560064206566666F7274206F6620546865202F
:100B66004C6F67696369616E73204E454455455401
:100B760000007E56696577206F6C64206174746529
:100B86006E64616E63652054616B65206E657720C7
:100B9600617474656E64616E636500003C53534412
:100BA600203E2020203C30312D4A616E2D30373ECC
:100BB6006E756D626572206F6620636C6173736516
:100BC600733C313E000053656C65637420696E6446
:100BD6006578206E756D626572206F662074686533
:100BE6002020636C61737320203C30313E2000006E
:100BF600564C53492020202020202030312D4A6198
:100C06006E2D303723436C61737365733A31202040
:100C160052233030313C503E000041726520796FDE
:100C260075207375726520746F20736176657468BC
:100C3600697320617474656E64616E63653C592FD7
:100C46004E3E000020536176696E6720696E666FBE
:100C5600726D6174696F6E2020696E746F204545F0
:100C660050524F4D00004C6F6164696E6720696E8B
:100C7600666F726D6174696F6E2066726F6D204566
:100C86004550524F4D00646F6E6520202020202075
:100C960020202020202020202020202020205353E8
:100CA60044204F70746F564C53494C435320435362
:100CB6002D32445350204D50414C43434E204E4D0F
:100CC6002020303130323033303430353036303722
:100CD60030383039313031313132313331343135E8
:100CE60031363137313831393230323132323233CE
:100CF60032343235323632373238323933303331B4
:100D06004A616E20466562204D61722041707220F4
:100D16004D6179204A756E204A756C2041756720B1
:100D2600536570204F6374204E6F762044656320B0
:100D360030373038312032203320342030303120E3
:100D460030303220303033203030342030303520CF
:100D560030303620303037203030382030303920AF
:100D660030313020303131203031322030313320B3
:100D76003031342030313620303137203031382090
:100D8600303139203032302030323120303232208A
:100D96003032332030323420303235203032362073
:100DA600303237203032382030323920303331205B
:100DB6003033322030333320303334203033352053
:100DC6003033362030333820303339203034302039
:100DD6003034312030343220303433203034342033
:100DE6003034352030343720303438203034392010
:100DF6003035302030353120303532203035332013
:100E060030353420303535203035362030353820F1
:100E160030353920303630203036312030363320E8
:100E260030363420303635203036362030363720CE
:100E360030363820303639203037302033303520C0
:100E460033303620333037203330382033303920B2
:100E5600333130204469676974616C20417474656C
:100E66006E64616E6365205265636F72646572209D
:100E76005B442E412E525D0062792041616D69729C
:100E86002C2041646E616E2C20466172617A2026A8
:100E9600204E6161696C2E204E45445545542E0006
:100EA60020436F6D6D756E69636174696F6E20772F
:100EB6006974682020504320696E2070726F6772D3
:100EC6006573732E2E2E2E2000006F9301E066238D
:100ED60019F0000F6A95FBCF6F910895662319F0FC
:100EE600000F6A95FBCF0895059109930F11FCCF6A
:100EF6000895E199FECFFFBBEEBBE09A0DB30895CE
:100F0600E199FECFDFBBCEBB0DBBF894E29AE19A26
:100F160078940895332329F00191F2DF21963A95CA
:100F2600F9CF0895332329F0E4DF099331963A95F2
:100F3600F9CF089511D012E00881002329F400E3C7
:100F460009931A95C9F708811395005D09930881DD
:100F56001A95D9F7239708954F9314E606D01AE009
:100F660004D0488322974F9108950027411718F01F
:100F7600411B0395FBCF09930895042F02D02297B6
:100F860008950F93029501D00F910F70005D0A33FB
:080F960008F0095F09930895BA
:00000001FF
